:100000000C942A000C943F000C943F000C943F0089
:100010000C943F000C943F000C943F000C943F0064
:100020000C943F000C943F000C943F000C943F0054
:100030000C943F000C943F000C943F000C943F0044
:100040000C943F000C943F000C943F000C943F0034
:100050000C943F0011241FBECFE5D8E0DEBFCDBF1A
:1000600010E0A0E6B0E0E6ECF0E002C005900D92F2
:10007000A038B107D9F70E9441000C9461000C949C
:10008000000080E884BF84BF80EF8ABB8FEF87BB0E
:1000900084BB9FEF89B38F709817E1F399B39F707A
:1000A000E92FF0E0EE0FFF1FE05AFF4F808188BB81
:1000B000818185BBE3EDF0E33197F1F700C00000EB
:0600C000E9CFF894FFCF28
:1000C6002B003300000403001B000B000108130083
:1000D6001908060008011108090821080802C300CA
:00000001FF
