:100000000C942A000C943C000C943C000C943C0092
:100010000C943C000C943C000C943C000C943C0070
:100020000C943C000C943C000C943C000C943C0060
:100030000C943C000C943C000C943C000C943C0050
:100040000C943C000C943C000C943C000C943C0040
:100050000C943C0011241FBECFE5D8E0DEBFCDBF1D
:1000600020E0A0E6B0E001C01D92A037B207E1F7A2
:100070000E944A000C948C000C94000080E090E0F8
:1000800005C0FC01E05AFF4F1082019680319105B6
:10009000C4F3089580E884BF84BF80EF8ABB17BA99
:1000A0008FEF84BB0E943E0030E090E002C09C2FA6
:1000B0003D2F89B3C82FCF70D6B382FF09C00E94ED
:1000C0003E0087EA91E60197F1F700C00000EFCF0C
:1000D000292F2C2723FFEBCF93FFE9CF4D2F4F7014
:1000E00050E0FA01E05AFF4F908195BBE7EAF1E654
:1000F0003197F1F700C0000080FF08C0E32FEF70D8
:10010000F0E0E05AFF4F32953F703083FA01E05A39
:0C011000FF4F808185BBCBCFF894FFCF60
:00000001FF
