S014000052656769737465725F6E65772E7372656322
S11300000C942A000C943C000C943C000C943C008E
S11300100C943C000C943C000C943C000C943C006C
S11300200C943C000C943C000C943C000C943C005C
S11300300C943C000C943C000C943C000C943C004C
S11300400C943C000C943C000C943C000C943C003C
S11300500C943C0011241FBECFE5D8E0DEBFCDBF19
S113006020E0A0E6B0E001C01D92A836B207E1F797
S11300700E943E000C9493000C94000080E884BF1E
S113008084BF1ABA17BA8FEF84BB80EF81BB30E00C
S1130090E9B346B320B3AE2FA295AF70A770B0E01A
S11300A0A05ABF4F8C9150E1859FC0011124E77085
S11300B0F0E0E05AFF4F9081892B85BB87EA91E6F7
S11300C00197F1F700C0000021FD08C011C0E82F1E
S11300D0F0E0E05AFF4F10828F5F01C080E088306B
S11300E0B0F387EA91E60197F1F700C00000D0CFA2
S11300F0832F822782FF0FC032FF0DC030FF0BC059
S1130100E42FE770F0E0E05AFF4F842F82958F7060
S11301108083407F42BB87EA91E60197F1F700C0F4
S10D01200000322FB5CFF894FFCF92
S9030000FC
